:10000000F0180020411C0000AD7600002D1C0000FF
:100010002D1C00002D1C00002D1C00002D1C0000BC
:10002000000000000000000000000000791C00003B
:100030002D1C000000000000611E00002D1C0000AF
:10004000E11E0000E11E0000E11E0000E11E0000B4
:10005000E11E0000E11E0000E11E0000E11E0000A4
:10006000E11E0000E11E0000E11E0000E11E000094
:10007000E11E0000E11E0000E11E0000E11E000084
:10008000E11E0000E11E0000E11E0000E11E000074
:10009000E11E0000E11E0000E11E0000E11E000064
:1000A000E11E0000E11E0000E11E0000E11E000054
:1000B000E11E0000E11E0000E11E0000E11E000044
:1000C000E11E0000E11E0000E11E0000E11E000034
:1000D000E11E0000E11E0000E11E0000E11E000024
:1000E000E11E0000E11E0000E11E0000E11E000014
:1000F000E11E0000E11E0000E11E0000E11E000004
:10010000E11E0000E11E0000E11E0000E11E0000F3
:10011000E11E0000E11E0000E11E0000E11E0000E3
:10012000E11E0000E11E0000E11E0000E11E0000D3
:10013000E11E0000E11E0000E11E0000E11E0000C3
:10014000E11E0000E11E0000E11E0000E11E0000B3
:04015000E11E0000AC
:1001540010F8012B11F8013B012A28BF9A42F7D06D
:10016400D01A70477FB50E461D460446A0B90AABA7
:100174000B48039307F08FFB2A460146094B0A48B4
:10018400009607F0F2F90399099800F05DFF07481B
:1001940007F0EBF902F04EFD204604B070BD00BF3D
:1001A400EC870000F3B200001A88000071AC000074
:1001B4001FB50446B0B908AB0C48039307F06BFBBA
:1001C4000B4B014640F213120A4800930A4B07F006
:1001D400CCF90399094800F037FF094807F0C5F93D
:1001E40007F043FB204604B010BD00BFEC870000BD
:1001F4006D88000044880000F3B200009B88000072
:1002040071AC000010B586B005AA14210A2000F0D4
:1002140075FDB0FA80F0424C424B434A0193434986
:1002240040F2131300944009FFF7C2FF0598404BB6
:10023400A0F11E0C0290DCF1000040EB0C00CDE9B3
:100244000043394A4FF48A733A49FFF78BFF05AAF2
:100254000521059800F068FDB0FA80F0364B324A6B
:10026400CDE9004335494FF48B734009FFF77AFF1A
:100274000598334BA0F1190E0290DEF1000040EB1B
:100284000E00CDE90043284A40F217132D49FFF729
:1002940069FF05AA0221059800F05CFDB0FA80F020
:1002A400294B214ACDE90043284940F2191340095A
:1002B400FFF758FF0598264BA0F1320C0290DCF1B1
:1002C400000040EB0C00CDE90043174A4FF48D7356
:1002D4002049FFF747FF05AA0A21059800F050FDC1
:1002E400B0FA80F01C4B104ACDE900431B494FF48F
:1002F4008E734009FFF736FF0598194BA0F1050EE0
:100304000290DEF10000CDE90043074A40F21D13DC
:10031400144940EB0E00FFF725FF06B010BD00BFE7
:10032400F3B200009B880000EC8700006D88000099
:10033400D3880000BA88000022890000F1880000F8
:100344004E890000358900009C8900006B890000FB
:10035400C8890000AF890000178A0000E589000001
:10036400428A00002A8A00007FB50E461D460446D4
:10037400A0B90AAB0B48039307F08DFA2A4601464D
:10038400089B0948009607F0F0F80399099800F0D3
:100394005BFE064807F0E9F802F0F8FB204604B0DB
:1003A40070BD00BFEC8700005F8A000071AC0000E4
:1003B40007B500220221012000F0B6FC074B0038EB
:1003C4000193074B18BF01200093064AA72306494F
:1003D400FFF7CAFF03B05DF804FB00BF958A000075
:1003E40067B40000EC870000878A00001FB5052170
:1003F40003AA032000F098FCB0FA80F00C4C0D4BDB
:10040400009401930C4A9E230C494009FFF7ACFF6A
:1004140003980B4B084ACDE90043841C4FF09F031B
:1004240014BF002001200749FFF79EFF04B010BD50
:1004340088B40000EC8A0000EC870000C08A000049
:10044400208B0000078B00001FB5032103AA0520A1
:1004540000F06AFCB0FA80F00C4C0D4B0094019350
:100464000C4A96230C494009FFF77EFF03980B4B77
:10047400084ACDE90043841E60424FF097030849BF
:100484006041FFF771FF04B010BD00BFACB40000C1
:10049400EC8A0000EC870000368B00007A8B0000A9
:1004A400628B00001FB5032103AA6FF0090000F05E
:1004B40067FCB0FA80F00D4C0D4B009401930D4A8B
:1004C40040F201130C494009FFF74EFF03980B4B10
:1004D400084ACDE90043C41C4FF4817314BF0020C3
:1004E40001200749FFF740FF04B010BD21B300000D
:1004F400BD8B0000EC8700008F8B0000EE8B0000AA
:10050400D58B000007B500220221012000F038FC41
:10051400074B00380193074B18BF01200093064A8C
:10052400FA230649FFF720FF03B05DF804FB00BF80
:10053400958A000052B30000EC870000878A00000F
:1005440030B540F2E73485B003AA00210A200394B1
:1005540000F016FC0F4D104B10F1160F019318BF4D
:1005640000204FF0F20308BF01200C4A0C4900950B
:10057400FFF7FAFE03980B4B041B6042CDE90053CE
:10058400064A4FF0F30308496041FFF7EDFE05B05A
:1005940030BD00BF73B300003A8C0000EC8700004C
:1005A4001F8C00007B8C0000618C00001FB50321B0
:1005B40003AA072000F0E4FBB0FA80F00C4C0D4BCA
:1005C400009401930C4AE8230C494009FFF7CCFE40
:1005D40003980B4B084ACDE90043841E60424FF058
:1005E400E90308496041FFF7BFFE04B010BD00BF36
:1005F40096B30000BD8B0000EC870000A28C0000C5
:10060400CE8C0000628B00001FB5022103AA0A20D1
:1006140000F0B6FBB0FA80F00C4C0D4B0094019343
:100624000C4AE0230C494009FFF79EFE03980B4B4C
:10063400084ACDE90043441F60424FF0E1030849F2
:100644006041FFF791FE04B010BD00BFBDB30000D0
:10065400BD8B0000EC870000F88C0000258D0000A5
:100664002A8A00001FB5032102AA072000F046FBD6
:10067400B0FA80F02B4C2C4B2C4A2D49019300945A
:1006840042234009FFF770FE03A800F019FBB0FAFB
:1006940080F0284B254ACDE90043274943234009EC
:1006A400FFF762FE0398254BA0F10A0CDCF1000071
:1006B40040EB0C00CDE900431C4A44232049FFF7DA
:1006C40053FE02AA00210A2000F05AFB1D4B0038F9
:1006D40018BF0120CDE90043144A47231A49FFF704
:1006E40043FE03A800F0ECFAB0FA80F0174B0F4A6F
:1006F400CDE90043104948234009FFF735FE03982C
:10070400134BA0F10A0EDEF10000CDE90043074AC5
:100714004FF049030A4940EB0E00FFF725FE04B0F1
:1007240010BD00BFA3B50000678D0000EC8700007A
:100734003B8D0000AA8D0000788D0000DE8D000046
:10074400C58D0000288E0000FF8D00003E8E000045
:10075400588E000007B500220221012000F0FAFAA9
:10076400084B10F1160F0193074B18BF002000939C
:1007740008BF0120CF23054A0549FFF7F5FD03B063
:100784005DF804FB878E0000E0B30000EC870000F6
:100794001F8C00001FB5002103AA642000F0DAFAC0
:1007A400B0FA80F00B4C0C4B0C4A01930C49C72354
:1007B40000944009FFF7D8FD03980A4BB0FA80F083
:1007C400CDE90043054AC82307494009FFF7CCFD9A
:1007D40004B010BD01B40000DF8E0000EC870000FF
:1007E400B18E0000158F0000FD8E00001FB504219E
:1007F40003AA6FF0020000F0ADFAB0FA80F00E4CDC
:100804000E4B0F4A01930F49BF2300944009FFF791
:10081400ABFD03980C4B10F10C0FCDE9004318BF4E
:1008240000204FF0C00308BF0120054A0749FFF725
:100834009BFD04B010BD00BF1DB40000DF8E00009E
:10084400EC8700002C8F0000738F0000598F00008C
:100854001FB5042103AA032000F07CFAB0FA80F04B
:100864000C4C0D4B009401930C4AB7230C494009DE
:10087400FFF77AFD03980B4B084ACDE90043A0F13A
:100884000C0460424FF0B80307496041FFF76CFD68
:1008940004B010BD42B40000DF8E0000EC870000FD
:1008A4008B8F0000D08F0000B78F00001FB502218E
:1008B40002AA012000F022FAB0FA80F01B4C1C4B73
:1008C400009401931B4A38231B494009FFF74CFD50
:1008D40002AA0621052000F03DFAB0FA80F0174B79
:1008E400144ACDE90043164939234009FFF73CFD7A
:1008F40003A800F0E5F9B0FA80F0124B0D4ACDE9F7
:10090400004311493A234009FFF72EFD03980F4B8A
:10091400084ACDE90043A0F11E0460424FF03B03B6
:100924000B496041FFF720FD04B010BDD9B50000AC
:1009340012900000EC870000E68F00005490000045
:10094400289000006B900000788D00009D900000BE
:100954008490000007B500220221012000F0CEF9A6
:10096400084B10F1160F0193074B18BF002000939A
:1009740008BF01208623054A0549FFF7F5FC03B0AB
:100984005DF804FB878E0000D0B40000EC87000003
:100994001F8C0000002130B585B003AA084600F082
:1009A400ADF9B0FA80F01A4C1A4D00947B231A4A20
:1009B4001A4901954009FFF7D7FC0398184BB0FA80
:1009C40080F0CDE90043144A7C2316494009FFF71F
:1009D400CBFC03AA00212A2000F090F9B0FA80F0A1
:1009E400CDE900457E230C4A0F494009FFF7BCFCC2
:1009F40003980E4B084ACDE90043A0F12A04604253
:100A04004FF07F030A496041FFF7AEFC05B030BDEB
:100A1400F1B40000EF900000EC870000C3900000E8
:100A240007910000FD8E00001C91000062910000FF
:100A3400499100001FB5052103AA6FF0090000F0D9
:100A44005DF9B0FA80F00D4C0D4B009401930D4A02
:100A540073230D494009FFF787FC03980B4B094AA0
:100A6400CDE90043441D4FF0740314BF002001205E
:100A74000749FFF779FC04B010BD00BF0AB50000B8
:100A8400EF900000EC87000079910000C091000015
:100A9400A79100001FB56FF0020103AA6FF00100D7
:100AA40000F02CF9B0FA80F00C4C0D4B009401933B
:100AB4000C4A6B230C494009FFF756FC03980B4B77
:100AC400084ACDE90043441D4FF06C0314BF0020D5
:100AD40001200749FFF748FC04B010BD2AB5000007
:100AE400EF900000EC870000D8910000069200000F
:100AF400A79100001FB5032103AA022000F0FEF80D
:100B0400B0FA80F00C4C0D4B009401930C4A632313
:100B14000C494009FFF728FC03980B4B084ACDE920
:100B24000043441F60424FF0640308496041FFF7EB
:100B34001BFC04B010BD00BF4FB50000EF900000D7
:100B4400EC8700001E9200004A9200002A8A0000EE
:100B54001FB5022103AA012000F0D0F8B0FA80F0FA
:100B64000F4C104B104A1149019300945023400933
:100B7400FFF7FAFB00F09CF803A800F0A1F80C4B77
:100B840010F13D0FCDE9004318BF00204FF0520390
:100B940008BF0120044A0749FFF7E6FB04B010BD73
:100BA40074B50000678D0000EC870000E68F00003C
:100BB4009B9200005F9200001FB5042102AA03204B
:100BC40000F09CF8B0FA80F0134C144B144A154909
:100BD400019300942F234009FFF7C6FB03A800F0FC
:100BE4006FF8B0FA80F0104B0D4ACDE900430F497D
:100BF40030234009FFF7B8FB0D4B094ACDE9004308
:100C0400DDE90204241A60424FF0310309496041CE
:100C1400FFF7AAFB04B010BD0CB60000678D0000FE
:100C2400EC870000BD9200006B900000788D0000FE
:100C340006930000E992000007B5002000F040F898
:100C4400084B10F1160F0193074B18BF00200093B7
:100C540008BF01202723054A0549FFF785FB03B098
:100C64005DF804FB629300003AB60000EC870000D4
:100C74002A9300001FB503A800F022F8084B10F1D6
:100C84003D0F0193074B18BF0020009308BF0120BC
:100C94002123054A0549FFF767FB05B05DF804FB0E
:100CA4008393000063B60000EC8700005F920000AD
:100CB4000022024B1A601A71704700BFC805002059
:100CC40008B530B90A48452106F0D9FC6FF0150083
:100CD40008BD084B1A7932B90748572106F0CFFCF2
:100CE4006FF03C00F4E71B6803600020F0E700BFEE
:100CF400A7950000C8050020C395000008B532B9C7
:100D04000748452106F0BBFC6FF0150008BD0844F8
:100D140010600122034B18601A710020F6E700BF2F
:100D2400A7950000C805002008B532B90748452139
:100D340006F0A5FC6FF0150008BD401A10600122F2
:100D4400034B18601A710020F6E700BFA795000056
:100D5400C805002008B532B90748452106F08FFCC4
:100D64006FF0150008BD484310600122034B186062
:100D74001A710020F6E700BFA7950000C8050020FF
:100D840008B532B94521094806F079FC6FF0150021
:100D940008BD11B957210648F6E790FBF1F0106041
:100DA4000122044B18601A710020F1E7A795000096
:100DB400DD950000C80500202DE9F04104460D46EC
:100DC40006F0B9FB804600284AD12946204606F0A1
:100DD40090FB0146204606F0BCFB04EB80010E6943
:100DE40096B90122E36882401343E36002220D6155
:100DF4002B462946204606F071FB0322294620464D
:100E0400BDE8F04106F06ABB02223146204606F0F6
:100E14005AFB032201460746204606F054FB86424D
:100E24000AD045210F4806F02AFC88F31188BFF345
:100E34006F8F0423184602DF3B46022229462046D0
:100E440006F04CFB032233462946204606F046FBB7
:100E540039462B46204606F041FB02223146CEE7B6
:100E6400BDE8F081FE950000B2F5802FF8B510D2F0
:100E7400042A28D83F494FF439733F4A3F4806F0C3
:100E84008AFB3F4806F087FB4FF439713A4806F075
:100E940079FB0823D21ACC1D114424F0070421F055
:100EA4000701091B17294FEAD1060ED8354940F22C
:100EB400ED23314A314806F06EFB314806F06BFBF6
:100EC40040F2ED21E2E70423E4E700230460314625
:100ED4002046A660E36006F03CFB820002F11B059D
:100EE400B6F5004F4FEAD5050FD26B1C9E420CD2CB
:100EF400254940F20333204A204806F04CFB2048A1
:100F040006F049FB40F20331C0E70021043204F14A
:100F1400100007F028F82A462046002106F007FBB7
:100F2400002320461A46194606F0D8FA771B1946BC
:100F34002046012206F0E3FA3A46294606F0F7FA7B
:100F44002B4600222946204606F0C8FA31462046A0
:100F540006F0EDFA3B4631462046002206F0BEFA82
:100F640031462046012206F0CAFA2946BDE8F84077
:100F7400FFF722BF9F9600002796000065960000A9
:100F8400C0960000D99600000297000008B50248F8
:100F940006F0EBFA002008BD3597000010B5EFF31A
:100FA4001184202383F31288BFF36F8F184805F050
:100FB4008DFD68B98423174A1749184806F0EBFADF
:100FC4001349174806F0E7FA8421124806F0DAFAC2
:100FD4000F4805F09FFD10220021124806F0C3FFC0
:100FE4000B4805F081FD68B94FF49973094A0E491D
:100FF4000A4806F0D0FA06490C4806F0CCFA4FF439
:101004009971E2E784F31188BFF36F8F10BD00BFBD
:10101400D005002081970000AE970000659600007F
:10102400C3970000D0000020D9970000F09700007B
:10103400014B1B68184700BF08000020014B1860D3
:10104400704700BF0800002030B5044685B00D4647
:1010540010220021684606F086FF02238DF8023034
:10106400044B2A4621466846019305F0E7FF05B084
:1010740030BD00BF351000002DE9F84F0546AB8B9D
:1010840008461907904616D501280CBF43F01003F3
:1010940043F02003AB831435284605F025FD0028D2
:1010A40040F0B181AE494FF49973AE4AAE4806F0B0
:1010B40072FA29469DE0022803F0070140F07D8181
:1010C400284606F075FA052800F2FA8001A353F8C1
:1010D40020F000BF9B100000BF130000C5120000E9
:1010E40069110000031200006312000002F00702FD
:1010F400531F012B1AD80023062A2E68A4B2C5E96F
:10110400003309D1334603E0EA8B0132EA831B68DA
:10111400002BF9D144F002042846AC8306F048FAC7
:10112400002800F05A8144F0200455E1042A0DD12E
:10113400A4B22846AC8306F03BFA0646002800F029
:101144004C8144F020040026AC8346E1874940F2F8
:101154001B13874A844806F01EFA40F21B11844888
:1011640006F010FA49B183494FF4AB73804A7E48C4
:1011740006F011FA4FF4AB71F1E72B684BB97E49D5
:1011840040F257137A4A784806F005FA40F25711AC
:10119400E5E72B691F684FB978494FF4AD73744A7A
:1011A400714806F0F8F94FF4AD71D8E70E468A4657
:1011B4004FF00609AC8B24F0070444F00604A4B2F3
:1011C400AC83AB68002B00F00F814FF0010B44F0AF
:1011D4000804AC8305F11404204605F085FC0028BE
:1011E40078D15F494FF499735E4A5F4806F0D3F9AA
:1011F4002146634806F0CFF94FF499718EE0022935
:1012040009D0604940F25D13594A574806F0C3F9C2
:1012140040F25D11A3E7EE8B4EB15B494FF4AF731F
:10122400534A514806F0B7F94FF4AF7197E72B6969
:101234005F684FB9514940F261134D4A4A4806F07C
:10124400AAF940F261118AE7AC8BB24624F0070494
:1012540044F00404A4B24FF00409AC83B1E70129BB
:1012640009D04A494FF4B273414A3F4806F093F912
:101274004FF4B27173E72B684BB93F4940F26513E1
:101284003B4A394806F087F940F2651167E72B6954
:101294009F684FB939494FF4B473354A324806F060
:1012A4007AF94FF4B4715AE70026AC8BB24624F0B5
:1012B400070444F00504A4B24FF00509AC8380E7A9
:1012C4002A4940F26B132A4A274806F064F940F28F
:1012D4006B1144E788F31188BFF36F8FBBF1000FE4
:1012E4001ED1002E33D117B128462949B847EFF350
:1012F4001188202383F31288BFF36F8F204605F0F3
:10130400E5FB00284AD18423164A2249164806F0F0
:1013140042F92146204806F03EF9842111481FE78E
:10132400A9680029DDD0D1F800800029D9D053461E
:101334004A462846D1F804B0D847B8F1000F04D083
:10134400D8F8003041469846EFE74346FAE731467D
:1013540053464A462846366806F056F9C1E700BFA8
:10136400D9970000819700006596000030AA00001C
:10137400109800003598000041980000649800001F
:10138400F09700007B98000091980000A09800005E
:1013940019140000AE970000C3970000204605F022
:1013A400B9FBAC8B24F00804A4B2AC83E20621D5CB
:1013B40024F01003AB8304F00701D5F818A0AA8B1E
:1013C400BAF1000F22F00704BFF690AE00232E6896
:1013D400C5E9003344F00104AC8304F007098945EE
:1013E4004FF000077FF4EDAE0EB9002FDED04FF0C2
:1013F400000BECE6A3067FF54EAE24F02003AB838E
:1014040004F007015CE688F31188BFF36F8FBDE831
:10141400F88F00BFF8B504460D4600F11406EFF34B
:101424001187202383F31288BFF36F8F304605F0B2
:101434004DFB68B984230C4A0C490D4806F0ABF8FF
:1014440031460C4806F0A7F88421074806F09AF8BC
:10145400304605F05FFBA5613A462046BDE8F840FA
:101464000121FFF709BE00BF81970000AE9700007D
:1014740065960000C39700002DE9F04704460E4628
:1014840006F0B2F8051E66DB04F11409EFF3118AC5
:10149400202383F31288BFF36F8F484605F016FBB1
:1014A400804660B98423374A3749384806F073F8D0
:1014B4004946374806F06FF88421324843E04846ED
:1014C40005F028FB4FF6FF72E38BA78B934207F0DE
:1014D400070743D0062F2CD8DFE807F01F43092B5A
:1014E4001F041F006FF085054FF0000802E002257D
:1014F4000133E383484605F0F7FA002834D14FF46A
:101504009973204A2349214806F045F84946224860
:1015140006F041F84FF49971CFE700233360636814
:1015240023B9C4E9006687B13D46DDE71E60666005
:10153400F9E71A4915484FF4E473194A06F02BF8F1
:101544004FF4E471164806F01DF852460221204675
:10155400FFF792FD3D462846BDE8F0876FF00A0587
:10156400C2E76FF00405BFE78AF31188BFF36F8FFA
:10157400B8F1000FEFD000233A463146204606F07A
:1015840043F8E8E781970000AE97000065960000F5
:10159400C3970000D9970000F0970000A0980000BE
:1015A4001098000008B54268034602F00302032ABB
:1015B40081600AD06AB9084908484523084A05F0F9
:1015C400EAFF4521064805F0DDFF006800225A6065
:1015D40008BD0020FAE700BF30AA000065960000AD
:1015E400B6980000014B0360002070477886000025
:1015F40080B505460E461746984605F08DF9034614
:1016040000F07EFCDFF83C90044649F80030424686
:1016140039463046A8470C4B1B7873B90B4940F246
:1016240046330B4A0B4805F0B6FF0B4805F0B3FFF1
:1016340040F24631064805F0A5FF54F8090000F0D1
:10164400F7FB00BF08000000A9070020079900006D
:10165400DC980000659600001A99000008B503485C
:10166400034A0021121A06F017F808BDD000002022
:10167400AC070020074808B5074A0849121A06F0C3
:101684000DF8BDE808400648064A0749121A06F054
:1016940005B800BF00000020D0000020B8B600004C
:1016A4000000002000000020B8B6000037B5054651
:1016B4000C46C9B18B6814480093D1E90023452135
:1016C40005F0DDFF636945210093D4E903230F4846
:1016D40005F0D5FF4521E2690D4805F0D0FF45210D
:1016E400A2690C4805F0CBFF012D06D1EFF305826A
:1016F40045210948103A05F0C2FF2146284603B0A7
:10170400BDE8304003F07ABD3C99000070990000B8
:10171400A4990000B8990000EB99000030BFFFF7CE
:10172400FDBF00BF2DE9F04105460B4EDFF82C80CC
:10173400324606EB0807CC1B2046094906F006FC96
:10174400A01942460021083C06F00DFCC5F8904063
:1017540007F10800BDE8F08100000000040000006B
:101764006886000010B5244C4521244805F087FF05
:10177400A36A99013ED52248452105F080FF1E2029
:10178400A36ADA0104D51F48452105F078FF1F201C
:10179400194CA36ADB0204D51B48452105F06FFFF1
:1017A4000220A36A1C0304D51848452105F067FFED
:1017B4002120114CA36A590304D51548452105F08D
:1017C4005EFF2220A36A9A0304D51248452105F03E
:1017D40056FF2320084CA36ADB0304D50E48452199
:1017E40005F04DFF2420A36A6FEA03436FEA134315
:1017F400A36210BD1D20C3E700ED00E0039A0000C2
:10180400209A0000389A0000579A0000869A000037
:10181400A99A0000D39A0000F29A000070B5284CEF
:1018240006460D462748452105F029FFA36AD90439
:101834003BD52548452105F022FF1720A36A1A0548
:1018440004D52248452105F01AFF18201C4CA36A30
:101854009B0511D51E48452105F011FFA26BA36A13
:10186400180408D545211B4805F009FF1EB1A36AD9
:1018740023F40043A3621920114CA36A590504D52B
:101884001548452105F0FBFE1A20A36ADA050ED59A
:101894001248452105F0F3FE1B20094A936A43F4DC
:1018A4007F43936200232B7070BD1620C6E7A36AA2
:1018B4009B04F2D50A48452105F0E1FE1C20ECE723
:1018C40000ED00E0229B00003D9B0000539B0000C4
:1018D4006B9B0000899B0000A39B0000C39B00003E
:1018E400E09B000070B5344C06460D463348452154
:1018F40005F0C5FEA36AD9064CD53148452105F04B
:10190400BEFE1120A36A1A0704D52E48452105F00E
:10191400B6FE1220284CA36A9B0711D545212A48FC
:1019240005F0ADFE626BA36A190608D54521274868
:1019340005F0A5FE1EB1A36A23F08003A362132061
:101944001D4CA36ADA0704D52148452105F097FE0A
:101954001420A36A9B0604D51E48452105F08FFE7A
:101964001520154B9A6AD60602D49A6A940713D5A1
:101974009B6AD90610D5184940F22D13174A184806
:1019840005F009FE174805F006FE40F22D11134834
:1019940005F0F8FD1020B5E7074B9A6A920642BF9E
:1019A4005A6A22F400525A629A6A42F0FF029A6218
:1019B40000232B7070BD00BF00ED00E0149C0000FC
:1019C4002F9C0000539B0000679C0000849C000037
:1019D4009F9C0000E09B0000F59C0000C39C00005D
:1019E400659600003F9D0000F0B5754B04465868AD
:1019F40000258BB0C0F3080385F31188BFF36F8F04
:101A040002F07F46B6F17F4F07D102F00C06082E94
:101A140012D145216B4805F032FE6B4940F21B435D
:101A24006A4A6B4805F0B7FD6A4805F0B4FD40F218
:101A34001B41664805F0A6FD16074CBF0C46012560
:101A4400002CEAD00026DA1E8DF80760092A00F27D
:101A5400A880DFE802F0059B9F7EA6A6A6A6A6A303
:101A640045215D4805F00BFE8DF80760544EF36A7E
:101A74009A0705D54521594805F001FE00232DE0BC
:101A8400F36A002B02DA45215548F5E7F36A5B0057
:101A94006FD54521534805F0F2FD7369A26943F4FB
:101AA40080737361BFF34F8FBFF36F8F32F8023CC3
:101AB400726922F480727261BFF34F8FBFF36F8F2C
:101AC40003F47F42B2F55F4F2AD1DBB2022B27D158
:101AD40045212268444805F0D2FD23689DF807207B
:101AE400E2B902AE04F12007324620686168083486
:101AF40003C2BC421646F7D1099A002D5DD0C2F349
:101B0400080121B96FEA52226FEA42220992102B8E
:101B140034BF1846002002A9FFF7C8FD0BB0F0BD82
:101B2400274B9A6AD2B232B101200DF10701FFF7B7
:101B3400D9FE0346D2E79A6A12F47F4F05D00120FA
:101B44000DF10701FFF76AFEF3E79B6AB3F5803FE7
:101B540002D3FFF707FEECE7244940F2ED231B4ACA
:101B64001B4805F018FD224805F015FD40F2ED2153
:101B74005FE71E494FF43C73144A154805F00BFD0A
:101B84001C4805F008FD4FF43C7152E700200DF1AC
:101B94000701CCE700200DF10701D3E745211648E2
:101BA4006AE7164910F4F87F154A164818BF0A4622
:101BB400103B452105F063FD60E76FF30802A5E7DC
:101BC40000ED00E0D19D0000019E0000C39C0000D8
:101BD40065960000149E0000529E00006E9E000058
:101BE400949E0000A79E0000CB9E000030AA000037
:101BF400EC9E0000109F0000409F0000B89D000074
:101C0400A39D0000699F0000064B5A6942F0100230
:101C14005A615A6942F480625A615A6922F0080290
:101C24005A61704700ED00E0EFF30880EFF309819B
:101C340001B57246FFF7D8FE01BD00BF0B4880F323
:101C4400088802F0CDF9202080F3118808484FF469
:101C54000061401880F30988EFF3148002210843DF
:101C640080F31488BFF36F8F00F072F8F01800202F
:101C7400B00B00201EF0040F0CBFEFF30880EFF34D
:101C84000980816911F8021C0229FFD001B572464E
:101C940005F006FD01BD00BF40B2002807DB0123AB
:101CA4004109034A00F01F00834042F82130704785
:101CB40000E100E0054B420953F82220012300F023
:101CC4001F0003FA00F01040704700BF00E100E07D
:101CD40038B54B1C072B04460D460FD96B23104A0D
:101CE4001049114805F057FC29461048072322469D
:101CF40005F051FC6B210A4805F044FC40B2002871
:101D0400ACBF00F160400A4A4FEA4313DBB2ABBFF9
:101D140000F5614000F00F0080F80033135438BD23
:101D2400819F0000B89F000065960000D39F0000CB
:101D340014ED00E0044B054A23F07F039360BFF3E6
:101D44004F8FBFF36F8F70470000000000ED00E07D
:101D540008B5FFF7EFFF0B4AD2F8883023F470037D
:101D6400C2F88830EFF3148323F0040383F3148858
:101D7400BFF36F8FFFF772FCFFF77CFC00F0A2F853
:101D840003F068FB00ED00E042F8203C009B0B49A7
:101D940042F81C3C019B21F0010142F8183C029BD3
:101DA40042F8081C42F8143C4FF0807342F8043C9B
:101DB4000023203A0265C0F894307047F5150000FE
:101DC40000B50E4B15469860D0F890200C4B0E468B
:101DD4001A60D0F8803083F30B882C4686F3098888
:101DE4000020044B98472046002100220023024C87
:101DF40020470000D3760000F51500006807002096
:101E0400D40500201022014B1A61704700ED00E058
:101E1400054B5A699B689A421FBF044A536843F0B2
:101E240080535360704700BF6807002000ED00E056
:101E3400084B9B6883420BD1EFF3058343B1064BF8
:101E44005A6842F080525A605A6A22F400425A6236
:101E540003F0F6BD6807002000ED00E016498A682B
:101E64004FF030001044EFF3098C80E8F01F20207D
:101E740080F31288BFF36F8F104F4FF000664A69EA
:101E84008A603E60D2F890000D4C2060D2F8940035
:101E94000023C2F8943080F3118802F1300090E8F6
:101EA400F01F8CF3098802F1000004B505F007FC6B
:101EB400BDE80440704700006807002004ED00E01E
:101EC400D4050020002320210348C2180133452BE8
:101ED40082F80013F9D1704700E100E008B5EFF390
:101EE4000583064A103B02EBC30152F833004968EC
:101EF4008847BDE80840FFF78BBF00BF1C81000086
:101F04000148006870470000D40500201FB5012176
:101F1400094B0A4A0A4800F00BF90023064A0393C6
:101F2400084B0121019301A8D31A029300F024F96C
:101F340005B05DF804FB00BF00000720000000208E
:101F440078860000D00000200A7A0B6810B562F38E
:101F540004031C46CB68520923F01F0343EA4203DF
:101F6400044A43F00103C2F89800C2F89C40C2F846
:101F7400A03010BD00ED00E010B50A4B0446D3F8C4
:101F84009030C3F30723013B984208D90246452108
:101F9400054805F074FB6FF01504204610BDFFF7EB
:101FA400D3FFFAE700ED00E017A000002DE9F04FA1
:101FB4008946144606464FF000084F4D85B0C84583
:101FC40027DAD6F804A0BAF1000F44D0BAF11F0FF3
:101FD40018D91AF01F0F15D1D6F800B01BF01F0F37
:101FE40010D1584605F0AFFB07460AEB0B00013849
:101FF40005F0A9FB874210D06FF015073A4645213A
:102004003E4802E0424645213D4805F038FB6FF06A
:102014001504204605B0BDE8F08F17F1160FEDD07A
:10202400BC42EBDDC5F89870D5F89C10C5F89870E3
:10203400D5F8A03021F01F0143F01F0BD6E9003280
:102044001A44994202F1FF3A1AD1D34507D13146D5
:10205400F8B205F081FB08F101080C36AFE7314610
:10206400C5F89870D5F89C30E0B263F30402C5F863
:102074009C2005F071FB10F1160FC8D0441CEAE750
:10208400C5F89870D5F8A020013B23F01F0302F097
:102094001F021343D3453146E0B2C5F8A030E8D05F
:1020A40005F05AFB10F1160FB1D0C5F89870D5F8A9
:1020B4009C209DF808300BF1FF3B62F304038DF87C
:1020C4000830D5F8A0309DF808205B0863F3471268
:1020D4008DF80820D6E900321344009323F01F033F
:1020E4005B44A3EB0A03013023F01F036946C0B22B
:1020F4000393FFF741FFBEE700ED00E06DA0000091
:1021040042A000000522044BC3F89420BFF34F8F74
:10211400BFF36F8F704700BF00ED00E0BFF35F8F28
:102124000022024BC3F89420704700BF00ED00E08A
:1021340038B50C4D0C462A78FFF738FF2870163056
:102144000FD140F28913084A0849094805F023FAD7
:102154002146084805F01FFA40F28911024805F0AB
:1021640011FA38BDA007002095A0000030AA000095
:1021740065960000C4A000002DE9F74F314D894653
:1021840006464FF00008AB462F4FC84502DB03B0AC
:10219400BDE8F08FD6F804A0BAF1000F4CD0316836
:1021A4000846019105F0CFFA019904460AEB0100B3
:1021B400013805F0C8FA84424FF01402234B15D0BD
:1021C40002FB08F36FF015024BF8032040F2991359
:1021D4001F4A2049204805F0DEF949461F4805F00A
:1021E400DAF940F299111A4805F0CCF914F1160FF6
:1021F4002C60EBD01978A142E8DD02FB08B0C7F8E7
:102204009840C7F89840D7F89C4000F10801007B3B
:1022140064F304000871D7F8A0000C79400860F357
:1022240047140C71D7F89C1021F01F016960D7F88E
:10223400A01021F01F01296108F1010814350C36A2
:10224400A3E700BFD805002000ED00E0A0070020B0
:1022540095A0000030AA000065960000F0A00000E0
:102264002DE9F0416B4D6C4ED5F890303468C3F3D2
:1022740007239C4286B013D940F20223674A684977
:10228400684805F088F9D5F8902021466648C2F3DD
:10229400072205F080F940F20221604805F072F946
:1022A4000020FFF73BFF614BC5F8C03084421BD1CF
:1022B4005F4D01A82C70FFF795F9002607464FF0F3
:1022C40061085C4CB74216D100202B785149D1F8F3
:1022D4009020C2F307229342C0F295800020FFF7BA
:1022E40011FF06B0BDE8F081716801EB0011FFF742
:1022F4002BFE0130DAE7019A300102EB0613D3F822
:102304000CC00CEA0401B1F1807F57D00AD8B1F5B2
:10231400001F29D0B1F5800F43D0B1F5801F14D030
:102324000136CFE7B1F1006F48D0B1F1805FF7D14A
:1023340059689B681258013B21F01F000344CDE902
:10234400021223F01F0301220BE0596812589B6804
:10235400CDE902122122013B21F01F00034423F0A6
:102364001F038DF8102036E0596812589B68CDE998
:1023740002124122013B21F01F00034423F01F03FA
:102384001CF0010F8DF81020059325D02A498423D1
:10239400224A244805F0FFF8284805F0FCF8842177
:1023A4007BE759689B681258013B21F01F000344E6
:1023B400CDE9021223F01F030622D2E7596812580E
:1023C4009B6821F01F00013BCDE90212034423F076
:1023D4001F038DF810800593287802A9FFF7CCFD20
:1023E40000280CDA0E4940F235230C4A0D4805F05A
:1023F400D2F8134805F0CFF840F235214DE72B7899
:1024040001332B708CE7C1F89830C1F8A000013378
:102414005DE700BF00ED00E08486000095A00000A9
:1024240030AA0000659600001FA10000AAFF440026
:10243400A00700200000F0FF53A1000079A10000D4
:10244400A8A1000008B5024B1B689847002008BDEE
:10245400EC050020034B044A1860937843F0020310
:1024640093707047EC0500200C00002008B5064965
:10247400064821F00701C1F1005202F5E022FEF7FF
:10248400F3FC002008BD00BFF7180020F005002071
:10249400052370B5144D154E2C780134B4FBF3F3B9
:1024A40003EB8303E41A05F0DDFA114A137823B130
:1024B40056F82430C01A072814D94FF05023D3F803
:1024C400141141B10021C3F81411D3F814312C7044
:1024D4000CB9012313702C7805F0C4FA46F82400D3
:1024E400012070BD0020FCE7A2070020FC050020AD
:1024F400A1070020054B03EB8000D0F8003223F045
:10250400E04343F04053C0F8003270470025845044
:10251400012208B5114B1249C3F8002502230020FB
:10252400C1F8D036FFF7E6FF1046FFF7E3FFC1F826
:102534000427C1F80429C1F8002B00F0A1F858B110
:102544000849094840F23D23084A05F024F840F2BE
:102554003D21064805F016F808BD00BF00100050E4
:10256400004000500BA2000065960000E1A10000AD
:1025740007B50022134B1449C3F8A821C3F8AC20B3
:102584004FF48062C3F8B8254FF400620F48C3F8D3
:102594003C250DF1070205F0AEFA00280BDA0C49D0
:1025A4000C4840F247230C4A04F0F5FF40F247215F
:1025B400094804F0E7FF9DF8070001F00FFE03B09F
:1025C4005DF804FB00A002502CA0025028A1025088
:1025D4000BA2000065960000E1A1000048B1054B84
:1025E400054A1B68B3FBF2F35843044B43F0010361
:1025F40018477047AC00002040420F00708600006E
:10260400002170B5184C194D000714F8013B5E0900
:1026140014D0012E06D14FF6FF7203F01F03DA40E7
:10262400D2070ED4124913484FF48263124A04F0BD
:10263400B2FF4FF48261104804F0A4FF4FF0FF3260
:10264400EBE70E4A0131012E18BF2A4602EB830242
:10265400D2F80032042923F0E04343EA0003C2F82D
:102664000032D2D170BD00BF99B60000002584505D
:102674004BA200006596000018A2000000288450B8
:102684000149024804F0D6BFAC86000010060020C1
:1026940008B54FF0FF33044A13603F2310465360DC
:1026A40001F076FD002008BD300600202DE9F34737
:1026B40005460C462E4EDFF8BC802F4F14B902B0ED
:1026C400BDE8F087EFF31189202383F31288BFF369
:1026D4006F8F2A4804F0FAF968B98423284A2949F3
:1026E400294804F058FF2549284804F054FF842160
:1026F400234804F047FF214804F00CFA05F0B2F92E
:10270400234AD2E90031C31808FB03FA41F100015E
:1027140006FB01AAA3FB0631DB194AEB010A1748A1
:10272400C2E9003A04F0E0F968B94FF49973144A25
:102734001849154804F02FFF1049174804F02BFFDF
:102744004FF49971D4E789F31188BFF36F8F042C88
:10275400A14628BF4FF0040928464A4601A9CDF8EE
:1027640004A04D4405F0F2FBA4EB0904A6E700BF66
:10277400FDB0B087E62EBB272DF304B53806002044
:1027840081970000AE97000065960000C397000093
:1027940000000020D9970000F097000070B50546AE
:1027A400074C084EB44202D30024204670BD28468C
:1027B4002168FDF7CDFC0028F7D01C34F2E700BFF8
:1027C40090830000388400002DE9F84380460D46CC
:1027D400144600230E4F0F4EDFF83C903B704E45DD
:1027E4000ED3D8F808300BB12046984702220B4B81
:1027F40020461A70AB68984701233B70BDE8F88304
:10280400336813B12146284698470836E7E700BFE6
:10281400A40700201886000020860000C4000020C1
:102824002DE9F04F93B008AF98460646C7E9032157
:1028340048B902224FF0FF39A04B1A7048462C3792
:10284400BD46BDE8F08F01689D4804F08EFE9D48AA
:1028540004F08BFE00209C4B18709C4B18701B7866
:102864009B4A052B107002D0706800B180474FF06E
:10287400000AB8F1000F08BF8046D146954A964B2E
:102884009B1A964A9B1053437B629B00FB61073360
:1028940023F00703BB60FB689A4510DB3168B9F18C
:1028A400000F40F03B818E4804F05FFE0422884B09
:1028B4001A703369002BC1D040469847BEE7BB6805
:1028C400C7F814D0ADEB030D08AB00211846FA6924
:1028D4003B6205F048FB142300937B6A7D4A396A06
:1028E400386904F09BFF4FF0000B7B6A5B450CD109
:1028F400724B1A7822B9B9F1000F01D001221A7073
:102904000AF1010AD7F814D0C5E73B6A346853F8D2
:102914002B5020462968FDF71BFC002840F0CB8093
:10292400704B20469B6869689847002800F0BE8079
:102934002A696D48136801331360696804F015FE51
:102944000122634B1A7005F08DF8684B18604FF044
:10295400FF324FF0FF33CDE906234FF0FF33082257
:10296400CDE90158CDE9033261494FF48062614BEE
:102974000096614803F01EF8696811B15E4802F0E0
:102984002DFF524B1B78043B012B09D95A4802F006
:10299400B9FF4FF0FF324FF0FF33574803F0B4F85C
:1029A40003224B4B1A70F3680BB140469847534CC3
:1029B400534A06E063681BB1414628469847504A8B
:1029C40008349442F6D305F04DF8484B4FF47A712D
:1029D4001B680022C01A47F6FF73E0FB0132DB0BD1
:1029E40043EA4243474A13602A691169994238BF4E
:1029F40013610522364B1A70344B1C78424B022C5F
:102A040003D0944201D01A785AB3002201241A70D8
:102A14003948FFF70DFA6B68BB613C4B3C4A934263
:102A240026D34FF47A71374B3A481A68B2FBF1F364
:102A340001FB132238490092BA6951F8241004F0BA
:102A440094FD204804F091FD022C2B6929D11E4AE3
:102A5400127812B10121194A11705A6801325A6070
:102A640024E0033C012C8CBF002401246400CFE744
:102A74005868B9697B60FDF76BFB7B6858B91868C7
:102A84002968FDF765FB7B6828B91B7A2BB1012BFC
:102A9400C7D1023C02E00C33C0E7013C18BF01245B
:102AA400BFE7002C3CD1DA680132DA60034B1B78B3
:102AB400022B3FF425AF0BF1010B16E7A50700200D
:102AC4006EA2000084A20000A3070020A407002037
:102AD400C40000203884000018860000CDCCCCCC83
:102AE400F2A20000E0860000C9A200004006002017
:102AF400B0070020CD270000E00000201886000069
:102B0400208600003C060020A607002090830000D9
:102B140090830000D5A20000D08600000348C3E6DD
:102B24009A6809F1010901329A60BFE70AA300001B
:102B340008B50F48FFF77CF905F09BF9B8B90D4BC0
:102B44001B7873B90C4940F246330C4A0C4804F024
:102B540022FD0C4804F01FFD40F24631074804F002
:102B640011FDFFF7CDF9084B1858FFF761F908BDBF
:102B7400E0000020A907002007990000DC9800006D
:102B8400659600001A9900000800000008B50E4B75
:102B94001B7873B15A1E012A0FD9052B96BF0B4A15
:102BA4000B4952F823100B4804F0DFFC02220A4BB5
:102BB40001E00522094B1A7008BD0222074B1A7066
:102BC400BDE80840FFF7B4BFC4000020B886000089
:102BD40020A300002AA30000A5070020A4070020CA
:102BE40008B50E4B1B7873B15A1E012A0FD9052B59
:102BF40096BF0B4A0B4952F823100B4804F0B5FC5E
:102C040002220A4B01E00422094B1A7008BD032278
:102C1400074B1A70BDE80840FFF78ABFC4000020C4
:102C2400B886000020A300005DA30000A5070020D3
:102C3400A40700200122014B1A707047A607002048
:102C440070B5054639B101F11404084EB44204D3F9
:102C54000024204670BD064CF7E728462168FDF79E
:102C640077FA0028F5D01434F0E700BF1886000086
:102C7400388400002DE9F04F89B002AFC7E9013272
:102C84002C4BC7E903011B78022B50D02A4D2B4C47
:102C94002B4B641BA4105C43A200D31D23F0070339
:102CA400ADEB030D0DF1080B0021584605F05BF95F
:102CB4001C23002600932A4623465946386904F00B
:102CC400ADFDB046B44204D140461C37BD46BDE814
:102CD400F08F4FF00009CA465BF826309D697B618E
:102CE400BB684B4506DC134BD0441B78022BEBD05E
:102CF4000136E7E7134B79695B68F868984790B148
:102D0400D7E9041000237A68FFF78AFD2B680AF1DB
:102D1400010A01332B60AB68002818BF0133AB6094
:102D240009F10109DCE76B6801336B60F8E74FF0E8
:102D34000008C9E7A507002090830000388400003C
:102D4400B76DDBB6E08600002DE9F04101271E4C8B
:102D54001E4EB4420ED31E4C1E4EB44214D317B9A9
:102D640001221D4B1A700127194C1B4DB4421AD372
:102D7400BDE8F081A3691D6825B92168174804F0EE
:102D8400F4FB2F461C34E4E7D4F800804046FFF7F8
:102D940005FD054628B942466168114804F0E5FB83
:102DA4002F461434D9E72269D2E902310B44516821
:102DB40012680B44934205D0D4E90012094804F088
:102DC400D4FB2F701434D1E79083000038840000C2
:102DD4003884000018860000A507002090A3000096
:102DE400B5A30000F7A3000010B4024C2468A44665
:102DF40010BC6047E08600002DE9F04F8BB004F072
:102E040036FD594804F0B1FB584EDFF864A1594B24
:102E14009E4215D3584804F0A8FB584B58481B78D9
:102E2400002B00F09A8004F0A0FB564804F09DFBB0
:102E34005549564804F099FB00200BB0BDE8F08FCB
:102E440000252C46A8462F46AB46A94633682146A2
:102E540018460993FFF7F4FE099B044600283CD169
:102E6400B8454DD04A49A8EB070201FB09F191FB93
:102E7400F2F14FF47A7291FBF2F246486FF0090EC8
:102E840000FB02110A2091FBF0F00EFB0011BBF1D4
:102E9400000C18BF4FF0010C042900DD01304FF481
:102EA4007A7EB5FBFEF10EFB11550093CDE90515B5
:102EB4000346CDE90378CDE9019B5AF82C10364836
:102EC40004F053FB21463068FFF7BAFE0446D8B934
:102ED400324804F04AFB1C3699E7226908F10108DC
:102EE40011690D44D2E90001814201D10137AEE7F5
:102EF400D26890420CBF09F101090BF1010BA6E75E
:102F04004FF0020C0246CAE74FF47A77D4E9002363
:102F1400256928692968B0FBF7FC07FB1C006F686A
:102F24008F420DD0ED68A94213D0A5B10191491B80
:102F3400CDE902C000911A481A4904F016FBC1E712
:102F44000221CDE900C05AF82110174804F00DFB06
:102F5400B8E70021F5E70121F3E704F006FB09488F
:102F640004F003FB114964E70CA400009083000003
:102F7400D08600003884000016A50000A5070020B4
:102F840084A200003CA5000065A500006CA500001B
:102F9400A086010018FCFFFF35A4000071AC0000FE
:102FA4009FA4000099A40000EAA4000082A50000E8
:102FB40037B540230C460A490093411A4911054686
:102FC4002346084A084804F067FC014628B128460D
:102FD400234603B0BDE83040184703B030BD00BFFE
:102FE400580600200D790000AC800000C9B2032906
:102FF40008B509D909490A487E230A4A04F0CBFADC
:103004007E21084804F0BEFA0C22036901FB023356
:10301400D3F8880000F0070008BD00BF04A6000034
:1030240065960000C7A5000070B5C9B20329034620
:1030340000690BD919491A484FF4E873194A04F086
:10304400AAFA4FF4E871174804F09CFAEFF31186DA
:10305400202484F31288BFF36F8F0C2505FB010431
:10306400D4F8884014F0C00401D0A24212D1012245
:1030740005FB0100C0F88820002086F31188BFF307
:103084006F8F30B90C225B6802FB01335B68984791
:10309400002070BD4FF0FF30EFE700BF04A6000032
:1030A40065960000C7A5000070B50D4606490446A4
:1030B400411A491140220548FFF7B6FF2B46014645
:1030C4002046BDE87040184758060020AC80000038
:1030D4002DE9F8430022012107460520FEF7F8FDFB
:1030E400114801F09BF80446C0B901F0CBF825461D
:1030F4004FF00C094FF001083E690C4906EB4510EE
:1031040004F098FA031E0CDB09FB05660135042D57
:10311400C6F88880F0D12046BDE8F8836FF0040437
:10312400F9E71C46F7E700BFED310000EC8600002C
:103134001FB5002201236C46CDE902236B46074AE2
:10314400CDE9004404F0D9FB28B94FF480420023B0
:10315400684602F0C9FA04B010BD00BF317900001E
:1031640010B5EFF31184202383F31288BFF36F8F1C
:10317400074A136823F00201DB07116002D401201F
:1031840001F0DCF884F31188BFF36F8F10BD00BF2A
:10319400080700200C22124B014602FB00330020DA
:1031A40030B4D3E92052C3F88000EFF31180202417
:1031B40084F31288BFF36F8FD3F8884004F0C004FF
:1031C40044F00204C3F8884080F31188BFF36F8F82
:1031D4001DB12B4630BC0348184730BC704700BFB4
:1031E40058060020AC80000008B5092822D8DFE882
:1031F40000F00513212121212115110F134BD3F8C0
:10320400880010F007001FD1BDE80840FFF7C2BFD7
:103214000220F9E70320F7E70120F5E70C4940F223
:10322400FA230C4A0C4804F0B6F940F2FA21094892
:1032340004F0A8F906494FF44173064A064804F01D
:10324400AAF94FF44171F2E708BD00BF5806002007
:1032540030AA0000C7A500006596000010B4EFF383
:103264001180202282F31288BFF36F8F18490B68F4
:1032740043F0020413F001030C601CD04FF0502300
:10328400D3F80C14D3F80C3413F0010313D0EFF378
:10329400118182F31288BFF36F8F0E4AD2F88830FF
:1032A40003F0C00343F00203C2F8883081F31188AD
:1032B400BFF36F8F012380F31188BFF36F8F1BB1AE
:1032C400002010BCFFF766BF012010BC00F0FCBF5B
:1032D40008070020580600202DE9F0410122064687
:1032E4004349D1E8EF3FC1E8E02F0028F9D1A3B961
:1032F400404941484B60CB608A60FEF7BDF8002826
:103304000BDA3E4940F2A3233D4A3E4804F043F918
:1033140040F2A3213A4804F035F9002E50D0731E30
:10332400012B5AD8012E07D14FF05023D3F81C3467
:1033340003F00303022B43D004F09BFD054658B170
:10334400EFF31188202383F31288BFF36F8F0125D5
:103354004FF050242C4F22E02C4B1B78002BEFD045
:103364004FF0502302228046C3F80823F0E74DB300
:10337400404604F0CCF9D4F81835DBB2012B0ED159
:10338400D4F804215AB10022C4F80421D4F8042149
:103394000222C4F818252022C7F88021A360D4F89B
:1033A4001824D4F81834D203E1D503F00303022B14
:1033B40001D0012EDBD155B188F31188BFF36F8F93
:1033C400BDE8F0810021212003F0AAF9D3E74FF0F2
:1033D40050230222C3F80423F2E70D4940F2B52337
:1033E400074A084804F0D7F840F2B52192E700BF35
:1033F40054060020440600207806002028A6000079
:10340400C7A500006596000000E100E0A9070020C0
:1034140030AA000008B5074804F018FD38B1064882
:10342400FFF718F80448FDF709FE002008BD6FF007
:103434001200FBE700810000413400000A2838B57F
:103444000446074D04D1AB680D2128465B689847B4
:10345400AB6803485B68E1B29847204638BD00BFBB
:103464000081000038B5036961B921496423214A08
:10347400214804F090F8214804F08DF864211D4897
:1034840004F080F8486850B91D496523194A1A4860
:1034940004F081F81B4804F07EF86521EFE75868D2
:1034A40000B30024884219D108688CB99C6858601C
:1034B400A14200D19860002008602AB15A680A60CD
:1034C4009A68596002B9996000200FE02846E9E73C
:1034D40020609868814208BF9C60ECE70568044658
:1034E400002DF3D1002AE9D16FF0150038BD00BFDB
:1034F400A7A600006BA6000065960000B0A6000019
:10350400BFA60000D1A6000008B50368590914D06D
:10351400012906D14FF6FF7203F01F03DA40D207E8
:103524000ED40B490B484FF482630B4A04F033F872
:103534004FF48261084804F025F84FF0FF32EBE7BE
:103544000360064B0648012908BF184608BD00BFA2
:103554004BA200006596000018A2000000288450C9
:103564000025845070B5446801F01F05207C86B0A6
:1035740045EA4015A068002872D0B2F5001F04D1B6
:10358400294601F0EFFC00204EE06068667CB2F54D
:10359400800F46624FF0000601A80196466032D1C2
:1035A400B3F1007F14BF052304238DF804300023F6
:1035B400CDE904030393E3686E46CB4013F0010F97
:1035C40034D1B2F1A07F31D168460095FFF79CFF5A
:1035D400009B803350F82330DB0727D46A46294602
:1035E400A06801F055FB163018D002962946A06851
:1035F40003AA01F0EDF9002816DB01222946A06890
:1036040001F02EFCBFE7B3F1C06F05D0B3F1007F2A
:1036140014BF01230223C8E70323C6E76946A06851
:1036240001F0FAFB0028E0DA06B070BD3246294604
:10363400A06801F02DFB0028D8D19DF80010A068E7
:1036440001F0CAFB0028D1D00749084840F2F11321
:10365400074A03F0A0FF40F2F111054803F092FF7E
:103664006FF08500E0E700BF0BA200006596000044
:10367400E8A600002DE9F043466840F20635337CA5
:10368400D00601F01F0747EA431748BF032302EAA5
:10369400050558BFC2F3401387B0B5F5837F1446C0
:1036A4008DF8033043D00DD8062D16D005D8A5B11A
:1036B400022D3ED06FF0150036E0B5F5807FF9D1CC
:1036C40001250AE040F20222954234D0B5F5407F4C
:1036D40033D0B5F5007FEDD1022522032FD5012388
:1036E40072688B409360B06880BB03A80397FFF7B0
:1036F4000BFF039B00EB8300C4F3004383F001033F
:10370400C4F34044D0F8002244EA43049DF8033053
:1037140022F4706244EA830422F00F0244EA05238F
:103724001343C0F80032002007B0BDE8F08307253A
:10373400D3E70425D1E70525CFE70325CDE76303C8
:1037440041BF012372688B40D360CCE739460DF149
:10375400020201F09DFA14F4403F804617D1394625
:10376400B06801F021FBB8F1000FDCD19DF8021024
:10377400B06801F031FB0028D5D01E491E48FC2357
:103784001E4A03F008FFFC211C4803F0FBFE4FF027
:10379400000901ABCDE90199CDE90439CDF80C90CC
:1037A4003946B06803AA01F013F94845BBDB14F4A9
:1037B400003314D09DF80330C4F3004484F00104B2
:1037C4008DF80E308DF80C508DF80D404B4639466F
:1037D400B06803AA01F0BEF90028C4DAA3E7CDE972
:1037E40004330DF1030303933946B06803AA01F0CF
:1037F400EFF8F1E70BA2000065960000E8A60000D0
:103804004209034670B502D0012A1ED070BD144E81
:10381400326951680029F9D0012503F01F030C68AF
:103824009D400029F2D08A682A4012D04B6873B9AF
:103834000C4989230C4A0D4803F0ADFE0C4803F0F3
:10384400AAFE8921084803F09DFE0A4EE0E73046AF
:1038540098471CB1236821461C46E2E72346FAE751
:10386400E480000014A700006BA600006596000029
:10387400D1A60000C880000038B54568A86890B19A
:1038840001F078FA014670B9A86801F035FA0446E7
:1038940058B902460649A86801F0E2F92246052112
:1038A4000D20FEF715FA002038BD6FF00400FBE789
:1038B4000538000008B50368590914D0012906D158
:1038C4004FF6FF7203F01F03DA40D2070ED40B4900
:1038D4000B484FF482630B4A03F05DFE4FF48261A0
:1038E400084803F04FFE4FF0FF32EBE70360064B4E
:1038F4000648012908BF184608BD00BF4BA20000B6
:103904006596000018A20000002884500025845009
:103914002DE9F04F154607464FF0010985B000EB3D
:103924008108B84503D1002005B0BDE8F08F3B689D
:10393400C3F3C322082AC3F3080400F2B4805B492A
:103944008E5C40F2FF12944208BF4FF0FF34B3F193
:103954000C5F4FEA136215D2222A15D8DFE802F071
:1039640017262B3A2E353A14141414404C141414FC
:103974001414141414144F86898C1414148F9497EB
:103984009A9DA0004E2A28D06FF08500CCE7C5F898
:103994000C45621C68D003A80394FFF78BFF039BBC
:1039A4004FF0010A09FA03F383603BE0C5F81445BC
:1039B4004FF0000A1BE0C5F80845EAE74FF0000A9B
:1039C400C5F80845611C25D14EE04FF0010AC5F841
:1039D4000C45F7E7C5F81045EAE7C5F81445D8E7FC
:1039E400C5F80845002EE3D14FF0000A0626631CF3
:1039F4003AD04FF0000B17E0C5F80C45F2E7C5F8D4
:103A040060457B88601C03F001032DD0002BC2D1DC
:103A14004FF0010A03A80394FFF74CFF039B09FA34
:103A240003F3C3604FF0010B3A6803A8130444BFC7
:103A34004FF0010A4FF0000B01920394FFF73AFF95
:103A4400039B019A00EB8300C2F341223302D0F8B6
:103A5400001243EA8203164A43EA0B030A40134363
:103A640043EA4A03C0F8003204375AE7C5F864450C
:103A7400C7E7C5F86845C4E7C5F86C45C1E7C5F8AC
:103A840024454FF0010AB2E7C5F8284581E7C5F897
:103A94003045F6E7C5F83445F3E7C5F83845F0E7AF
:103AA400C5F83C4575E76FF015003DE79DB600008D
:103AB400F0F0FCFF2DE9F04104460D46476804F0A0
:103AC400D8F988B14FF02008EFF31186314688F316
:103AD4001288BFF36F8F606803F084FF50BB86F3D6
:103AE4001188BFF36F8FEFE71F4B1B78002BE9D0D2
:103AF4004FF020086426606803F074FF70B9012059
:103B040003F0C4FF013EF6D10021212002F008FE9B
:103B1400F0E786F31188BFF36F8FF5E7EFF31186B3
:103B2400314688F31288BFF36F8F606803F05AFF41
:103B34000028EED0FB6900201D706368FA691B68D9
:103B4400C3F844250122C3F84825C3F82001D3F85B
:103B54002041C3F85801D3F858019A6081F31188C1
:103B6400BFF36F8FBDE8F081A90700202DE9F04174
:103B74000546002201210820FEF7AAF80820FEF7D6
:103B84008BF86C680121E06803F05DFF6B681968CD
:103B94002369C1F82435A27D637D207D1343228BE4
:103BA40002431343C1F86C356F680022D7E9004320
:103BB40013F001031BD0D5F8108004F10C01C4F8F4
:103BC400A02104F59070C4F88C2008F1080203F0D9
:103BD40092FF061E06DA4521214803F050FD3046C7
:103BE400BDE8F08198F8080000F0F8FA01230822F3
:103BF400C4F80025FA690121C4F844250022C4F858
:103C04004825A1606BB9D4F82031002BFBD0C4F84F
:103C14002021D4F820310123E3604FF48073C4F8E9
:103C24000433D4F85831002BFBD00021C4F800151C
:103C34006D68E8682C6803F006FF0823C4F80035B3
:103C44002A7A52B92B6AC4F834350123C4F83835BA
:103C5400C4F81021D4F8102123600026BFE700BF68
:103C640038A7000038B5114922F07F45D1E900306A
:103C7400D41AE31840F10000C1E90030A5F500139F
:103C8400B3F5400F09D20A4B1B681A0A1B065819D0
:103C9400084B42F10001C3E9000103F057F9014662
:103CA4002046BDE8384003F0ADB800BF90010020C5
:103CB40038070020980100200D4B1868010A0006FF
:103CC400BFF35F8F0B4BD3F80435181841F1000193
:103CD400B3F5801F0AD2084BD3E90023904271EB5D
:103CE400030303D210F1807041F10001704700BF5B
:103CF4003807002000500150980100202DE9F743B7
:103D04002D4BD3F8042391070BD5D3F8042142B1EA
:103D14000022C3F80421294AD3F80431136801337B
:103D24001360254CD4F80433DA033FD5244BD3E88D
:103D3400EF2F22F00101C3E8E01F0028F7D1D307D9
:103D440002D4D4F840318BB30025C4F84051D4F8E0
:103D54004031FFF7B1FFEFF31182202383F3128880
:103D6400BFF36F8F174BD3E90267B042B94120D339
:103D7400D3E900984FF0FF304FF0FF311D60C3E9E5
:103D840002014FF48033C4F84833C4F84051D4F8E6
:103D9400403182F31188BFF36F8FB9F1000F05D062
:103DA40032463B460020CDF80080C84703B0BDE84A
:103DB400F083A946EDE700BF00500150380700200A
:103DC40030070020800100202DE9F84F06460F46F9
:103DD400434DD5E8EF8F28F00103C5E8E23F002A00
:103DE400F7D14FF480393F4CC4F80893BFF35F8F89
:103DF400BFF36F8FFFF760FFB04271EB070308F06A
:103E0400010840D2384B301A67EB0101984271F136
:103E1400000148D2354BD3E902239F4208BF9642A2
:103E24003AD04FF0000C26F07F40834603216FF018
:103E3400020EC4F84893C4F840C1D4F84031DFF806
:103E4400B0A02BF07F43C4F84035C4F84493D4F8B1
:103E54000425AEEB02035B4423F07F4353451BD997
:103E6400D4F840315BB1D4F80425131A23F07F430E
:103E7400B3F5000F10D9C4F840C1D4F8403101EBB8
:103E8400020B0131DDE71B4BD3E8EF1F41F00101C9
:103E9400C3E8E21F002AF7D1144B174AC3E90267AB
:103EA4001A6000225A60B8F1000F16D0D5E8EF3F2F
:103EB40043F00103C5E8E23F002AF7D14FF4803212
:103EC400084BC3F804230B4BD3E8AF3FDB0742BFD7
:103ED4004FF40012094BC3F80021BDE8F88F00BF6E
:103EE40034070020005001500100800080010020B0
:103EF400FDFF7F0030070020693C000000E100E086
:103F040070B54FF0FF3000254FF0FF31164C174BC2
:103F14000226C4F80833C4F84833154BC4F80855CE
:103F2400C3E902014FF480334FF40012C4F80433A0
:103F3400104B0121C4F804631520C3F880212A46DC
:103F4400FDF7C6FE1520FDF7A7FE01230A4AA3606C
:103F54000021236009481360FFF736FF3046FFF75E
:103F6400BBF9284670BD00BF0050015003000F008C
:103F74008001002000E100E034070020FFFF7F0003
:103F8400431C10B50F4C05D08442A8BF0446012C35
:103F9400B8BF0124FFF790FE0B4AD2E90031C01AE2
:103FA400B0F5000F074A0AD22044904228BF1046B9
:103FB400BDE81040C01841F10001FFF705BF1046ED
:103FC400F6E700BFFFFF7F009001002008B5FFF770
:103FD40073FE024B1B68C01A08BD00BF900100208D
:103FE40008B503F043FD58B1614BD3F8202A3AB920
:103FF4000D21C3F8201A0121C3F81C19C3F81C2988
:104004000022D30003F57F03D3F80013013107D056
:10401400D3F800130132D3F80433202A0B60F0D113
:1040240003F024FD002840F09A8003F01FFD40B106
:10403400504B514AC3F830254FF050230122C3F8A6
:1040440058254FF47F03D3F83021D3F83431072AAD
:1040540006D1023B012B9EBF0022484BC3F84C25DE
:1040640003F004FD50B14FF05023D3F80024D107DE
:1040740042BF0022C3F81421C3F818214FF47F0370
:10408400D3F83021D3F83431072A09D14FF0502323
:10409400D3F80024D20744BF6FF00102C3F8002410
:1040A40003F0E4FC18B16522314BC3F80C274FF43C
:1040B4007F03D3F83021D3F83431072A16D12F4B9C
:1040C400D3F82034002B11DA4FF050230322C3F825
:1040D400182501229A60D3F80421002AFBD000227B
:1040E400C3F804210122DA60C3F818254FF47F03D2
:1040F400D3F83021D3F83431072A20D1023B022BE4
:104104001DD97E221A4B1B49C3F80C27C3F83C293E
:104114007F231B4AC2F818310023C1F8043EC1F8BA
:10412400083E01F54821C1F81031C2F82431C2F823
:104134002C3102F5FF1202F58052C2F8A032114A66
:10414400D2F88C3043F44063C2F88C300E4A0F4BE3
:104154001168C3F84415D269C3F84C2508BD292257
:10416400034BC3F80C270322C3F83C275DE700BFC9
:1041740000400050009003504400EFBE0020035064
:104184000020005000ED00E00080FF0000600050BF
:10419400014B1860704700BF3C07002010B50B4B63
:1041A4001446186858B90A490A4840F2F3130A4AEF
:1041B40003F0F1F940F2F311074803F0E3F903F0D7
:1041C40067FC0028A4BF2070002010BD3C0700201D
:1041D400B3A700006596000076A700000123024AF9
:1041E4008340C2F80435704700700150014B002031
:1041F4001B68184740070020014B1B68184700BF85
:1042040040070020014B09201B6818474007002085
:10421400014B08201B6818474007002010B5144CB8
:10422400237913BB01232371124B0028206018BF8C
:10423400184600F0BDF8D0B923680F48002B08BF1A
:10424400184600F097F990B923680C48002B08BF72
:10425400184600F003FA50B923680948002B08BF38
:104264001846BDE8104000F015B96FF0770010BD96
:1042740040070020F141000009420000FD41000018
:104284001542000008B50C4B1A794AB90B490C4881
:10429400B1230C4A03F07FF9B1210A4803F072F903
:1042A4001B6843B10520FDF705FD20B9BDE80840B2
:1042B4000520FDF7F1BC08BD4007002006A800005A
:1042C40065960000C9A7000008B5174B1B795BB9B8
:1042D400164940F20513164A164803F05CF940F2F9
:1042E4000511134803F04EF9032813D8DFE800F052
:1042F40002060A0EBDE8084000F0C2B9BDE8084055
:1043040000F068B8BDE8084000F046B9BDE80840D0
:1043140000F0CEB808494FF49273054A054803F0FB
:104324003AF94FF49271DCE74007002006A8000038
:10433400C9A700006596000030AA000008B5174B15
:104344001B795BB9164940F22B13164A164803F041
:1043540022F940F22B11134803F014F9032813D85F
:10436400DFE800F006020A0EBDE8084000F060B87D
:10437400BDE8084000F0DAB9BDE8084000F03CB9F7
:10438400BDE8084000F0C4B808494FF4A573054AD5
:10439400054803F000F94FF4A571DCE7400700205D
:1043A40006A80000C9A700006596000030AA000016
:1043B400074B0246187938B91A6001221A714FF076
:1043C4005023C3F8142570476FF07700704700BF7F
:1043D4004807002008B512490B794BB91149124816
:1043E4007723124A03F0D7F87721104803F0CAF86C
:1043F4004FF050230022C3F80021D3F800210122FA
:104404001A60096811B1C3F8042308BDD3F8002168
:10441400002AFBD00022C3F80021D3F80031F4E7CE
:104424004807002006A800006596000024A80000A4
:1044340008B5084B1B794BB9074908488923084A32
:1044440003F0A9F88921064803F09CF8BDE8084068
:1044540003F07BBB4807002006A800006596000017
:1044640024A800004FF05023D3F80423D2070DD51D
:10447400D3F8002152B10022C3F80021D3F800215F
:104484000122C3F80823024B1B681847704700BF7A
:1044940048070020054B0246187918B91A60012212
:1044A4001A7170476FF07700704700BF5007002003
:1044B40008B5134A13794BB9124913486123134AB7
:1044C40003F069F86121114803F05CF84FF05023C0
:1044D4000021C3F82011D3F8201101219961126839
:1044E40022B14FF48072C3F8042308BDD3F820210D
:1044F400002AFBD00022C3F82021D3F82031F4E7AE
:104504005007002006A800006596000067A8000078
:1045140008B5084B1B794BB9074908487323084A67
:1045240003F039F87321064803F02CF8BDE808407D
:1045340003F027BB5007002006A800006596000082
:1045440067A800004FF05023D3F80423D2050ED5FA
:10455400D3F820215AB10022C3F82021D3F8202116
:104564004FF48072C3F80823014B1B681847704747
:1045740050070020074B0246187938B91A60012207
:104584001A714FF05023C3F8802570476FF07700FD
:10459400704700BF5807002008B5134A13794BB978
:1045A400124913486723134A02F0F5FF67211148A3
:1045B40002F0E8FF4FF050230021C3F82411D3F890
:1045C400241101211962126822B14FF40072C3F858
:1045D400042308BDD3F82421002AFBD00022C3F809
:1045E4002421D3F82431F4E75807002006A800005A
:1045F40065960000AFA8000008B5084B1B794BB9BD
:10460400074908487923084A02F0C5FF792106487A
:1046140002F0B8FFBDE8084003F0CDBA5807002007
:1046240006A8000065960000AFA800004FF05023D4
:10463400D3F8042392050ED5D3F824215AB10022CD
:10464400C3F82421D3F824214FF40072C3F80823BB
:10465400014B1B681847704758070020074B024658
:10466400187938B91A6001221A714FF05023C3F82F
:10467400182570476FF07700704700BF600700206F
:1046840010B5264C23794BB925492648E523264AFB
:1046940002F081FFE521244802F074FF4FF050231B
:1046A400D3F81814D3F81824C9031BD502F0030255
:1046B400022A02D0012A12D101224FF05023C3F85A
:1046C40018250022C3F80421D3F8042101229A609A
:1046D4002268A2B9D3F80421002AFBD017E003F022
:1046E40084FAE9E7D3F81424D207E5D5D3F81C24D7
:1046F40002F00302013A012AF1D822681AB1022217
:10470400C3F8042310BDD3F80421002AFBD00022EF
:10471400C3F80421D3F80431F4E700BF6007002094
:1047240006A8000065960000F6A8000008B5094B2D
:104734001B795BB9084909484FF49173084A02F0A0
:104744002AFF4FF49171064802F01CFFBDE80840AF
:1047540003F04BBA6007002006A80000659600002D
:10476400F6A80000F8B54FF0502301250026D3F831
:1047740004431E4F04F0820404B9F8BDB4FA84F073
:10478400C0F11F00830003F580739BB203F1502333
:1047940005FA00F2196892B224EA02040029EBD067
:1047A4001E601B684FF05023022AC3F8082311D15E
:1047B400D3F81814D3F8181401F00301012903D015
:1047C4003B68C0B29847D7E7C3F81825C3F8042359
:1047D4009960D1E7064907484FF4F573064A02F099
:1047E400DAFE4FF4F571044802F0CCFE60070020B5
:1047F40030AA000065960000F6A80000034A4309A9
:10480400D35C00F01F001844C0B27047A6B6000085
:1048140010B504460846FFF7F1FF04EB4000838A15
:10482400DA051CD5C3F3432123F4F853838204F13E
:10483400120204F1720032F8023F13F4807F03D0B5
:10484400C3F3432399420AD09042F4D1002204EBEB
:10485400C1035A6004F1780003F034F900B910BDC3
:10486400054906484FF4DB73054A02F094FE4FF401
:10487400DB71034802F086FE0BA20000659600007F
:1048840039A9000008B502680146104603F0C6F9CC
:1048940058B910494FF482630F4A104802F07BFE66
:1048A4004FF482610C4802F06DFE02F01F035209BE
:1048B4000B600BD0012A0BD0094940F21943064A78
:1048C400064802F068FE40F21941EBE7054808BDCE
:1048D4000548FCE74BA2000018A200006596000002
:1048E40030AA00000025845000288450072808B509
:1048F4000BD90849084840F2A733084A02F04BFE96
:1049040040F2A731054802F03DFE800000F58070BA
:1049140008BD00BFACA900006596000077A900009F
:10492400024611F0010010B50BD18B07C1F3400012
:104934000DD50749086A50600862003818BF012085
:1049440005E0044C236A13602362002BEDD010BDF4
:104954000028845000258450F7B504460846FFF724
:104964004DFF04EB4006B38A0D46DB072AD52046EB
:1049740003F046FA2946204603F062F950B1204676
:1049840003F08DF90023276807EB8000C0F8103589
:10499400C0F81035204600242946FFF739FFB482B9
:1049A40001A80195FFF76EFF019B00EB8300D0F88F
:1049B4000022064B134043F00203C0F800322046A5
:1049C40003B0F0BD6FF01500FAE700BFF0F0FCFF94
:1049D4002DE9F0430E461746044685B058B95A49A6
:1049E4005A4840F25E435A4A02F0D5FD40F25E4115
:1049F400574802F0C7FD0846FFF700FFD7F80080CC
:104A04000546B8F1000F19D0204603F03DF918BB54
:104A14004346CDE900008DF80E008DF80F000DF12E
:104A24000F0230460DF10E0103F062F904EB45026A
:104A3400938A23F0020343F0010393827B689BB3C0
:104A44003146204693F80080D3F8049003F011F91E
:104A540028B1B9F1000F1FD06FF0150027E004EB67
:104A64004500838A23F4604323F020038382B9F151
:104A7400000F11D0B8F1030FEED87B6821685B6892
:104A840093F800C04FEA8C031944B8F1000F11D118
:104A9400C1F81085C1F8108504EB4502938A23F010
:104AA4001C0343EA88039382BB6843BB002005B020
:104AB400BDE8F083D1F8102522F00302C1F81025D7
:104AC40022681344D3F8102522F44F3222F44072A2
:104AD400C3F810253202D3F8101502F47C5242EACE
:104AE40008420A43C3F8102504EB4C03A3F87C6086
:104AF400838A43EA4C3343F020038382CCE7314674
:104B0400D3E900782046FFF783FE002FCED06368F8
:104B14009F4206D004F1780002F0BAFF002804DABC
:104B2400C5E7A3689845F5D1002004EBC003C3E9A9
:104B3400017804EB4505AB8AC0B243EA402343F451
:104B44008073AB82B2E700BFB6A90000659600008F
:104B540039A900002DE9FF410C4616461F460546BB
:104B640058B93C493C484FF48D633C4A02F013FD6C
:104B74004FF48D61394802F005FD0846FFF73EFE0B
:104B8400804616B3284603F074F818B9284603F093
:104B940057F808BB2146284603F05DF810B1737836
:104BA400012B19D001238DF80F300023721CCDE99D
:104BB40000632046B31C0DF10F0103F099F805EBD7
:104BC4004802938A43F003039382002F3FD0214687
:104BD400284603F04EF820B96FF0150004B0BDE884
:104BE400F08100223E782B6805EB480003EB860336
:104BF400C3F81025C3F81025838A4FEA860C23F4E2
:104C0400604323F020038382797801B32A68BF7854
:104C14006244D2F81035090423F4991323F4F853A9
:104C2400C2F81035230201F4403103F47C530B43E2
:104C34003905D2F8105501F480110B432B43C2F807
:104C44001035838A43EA463343F0200383820020ED
:104C5400C4E700BFB6A900006596000039A90000AA
:104C640008B558B90749084840F27143074A02F0A9
:104C740092FC40F27141054802F084FCC0E9031241
:104C840008BD00BFB6A900006596000039A9000060
:104C940070B51546044658B9134940F27A43134A8D
:104CA400134802F078FC40F27A41104802F06AFCA2
:104CB4004AB9104940F223330C4A0D4802F06BFC08
:104CC40040F22331F1E702F0BBFF48B10846FFF799
:104CD40095FD04EB40040020A38A5B0B2B7070BD90
:104CE4006FF01500FBE700BFB6A9000039A900006A
:104CF40065960000C1A90000F8B5044658B91949E1
:104D040019484FF49163194A02F045FC4FF491613C
:104D1400164802F037FC90F88C5090F88D70F5B975
:104D240060222946143003F01EF9114B266853F80B
:104D34003770AF420ED1002546F30730C6F87C51D8
:104D4400D6F87C31FCF7A8FF0123284684F88C3080
:104D5400A367F8BDE8B2FFF7C9FD0135E9E76FF0D5
:104D64007700F6E7B6A900006596000039A90000AF
:104D7400B087000008B558B90849094840F28F4384
:104D8400084A02F008FC40F28F41064802F0FAFBA0
:104D940090F88C00003818BF012008BDB6A90000A7
:104DA4006596000039A9000008B558B907490848B4
:104DB40040F29D43074A02F0EEFB40F29D41054854
:104DC40002F0E0FBBDE80840FFF7C6BDB6A900004D
:104DD4006596000039A9000008B558B90A490B487E
:104DE40040F2A4430A4A02F0D6FB40F2A441084828
:104DF40002F0C8FB074B90F88D0003EB8000BDE880
:104E0400084002F05FBE00BFB6A90000659600002E
:104E140039A90000B000002010B50C4658B90C495F
:104E24000C4840F2AB430C4A02F0B5FB40F2AB41F4
:104E3400094802F0A7FB094B90F88D0003EB8000B2
:104E440002F026FE0028A4BF2070002010BD00BF81
:104E5400B6A900006596000039A90000B000002042
:104E64002DE9F3410D461646044658B938494FF426
:104E7400A563384A384802F08EFB4FF4A5613548E3
:104E840002F080FB02F0E7FE48B9344940F23543B2
:104E9400304A314802F07FFB40F23541EFE72046CB
:104EA40002F0CEFE2768F8B1204602F0E2FE80460A
:104EB400D0B9204602F0F3FE0546FFF717FD47F888
:104EC40000803B58236803EB8503D3F8102542F098
:104ED4000102C3F8102526B101232268AB40C2F8B1
:104EE400043302B0BDE8F081D7F80433002BA4BF2B
:104EF4004FF00043C7F804334EB9194940F24F4309
:104F0400144A154802F047FB40F24F41B7E72846E0
:104F1400FFF774FC04EB4004A38AC3F38203042B5D
:104F240011D0052B11D001A80195FFF7ABFC019B13
:104F34000169D94001F001010231284602B0BDE8FF
:104F4400F04102F022BF0321F7E70221F5E700BF99
:104F5400B6A9000039A9000065960000CBA900009D
:104F6400ECA9000008B558B90749084840F22F5386
:104F7400074A02F010FB40F22F51054802F002FBF1
:104F8400BDE8084002F03CBFB6A9000065960000E9
:104F940039A900002DE9F04F07468DB058B973497F
:104FA400734840F25C63734A02F0F5FA40F25C61C4
:104FB400704802F0E7FA804658F804AB90F88D4048
:104FC400DAF804136C4BC9B2504653F8342041F05C
:104FD400004102F0E9FE051E39DA0023CDE90A3367
:104FE400654BE60003EBC40463680AA81946019301
:104FF400FFF796FC331D04934FF0000B5F4B0DF14C
:1050040028090393039A5C4912F8013B0392049A1A
:1050140002EBD3028A5C03F0070322FA03F3DB07F3
:105024001BD40BF10103022B4FF0010B09F104090E
:10503400E8D14FF000410022504602F0B5FE01993C
:105044000AA8FFF76DFC0028D6D125F000450124FD
:10505400002D74D10DB0BDE8F08F494B5B4405932E
:10506400D9F800100029DCD091FAA1F1B1FA81F14C
:10507400059B1C7841EA44142046FFF7BFFB07EB6D
:105084004000828AC808C2F38203CDE90623029352
:10509400012319F8006001F0070103FA01F126EA7F
:1050A400010109F8001009A80994FFF7EBFB09991D
:1050B400069A803150F8216012F0100F079BC6F356
:1050C400014623D021464046029A02F0F2FD09A887
:1050D4000994FFF7D7FB099BF6B2803350F82330CD
:1050E400C3F301439E4207D10021204602F04DFE46
:1050F4003146204602F049FE09A80994FFF7C2FB95
:105104000122099B02FA03F30362A9E7022E14BFEA
:10511400022103212046069302F037FE069B032B4F
:1051240003D0022E07D1012BE6D121464046029A34
:1051340002F0BFFDE0E7032EDED1022BF4E795FA7F
:10514400A5F3B3FA83F304FA03F225EA020503F59F
:10515400A2725AF8222007EB43034046B3F87C10AE
:10516400C2F3014202F0A5FD72E700BFB6A9000038
:105174006596000039A90000B0870000B6B60000AB
:10518400B6B6000038B5436905463BB90024EA6861
:105194006042537843F00103537038BD9847044686
:1051A4000028F3D000F1FF03FE2B0ED92123094A76
:1051B40009490A4802F0EFF929680948224602F031
:1051C400EAF92121034802F0DDF9EB6844421C703E
:1051D400DDE700BFF7A900001AAA000065960000E9
:1051E40032AA000010B504464521034802F047FAEC
:1051F400204602F036FE00BF57AA0000F7B5044669
:105204000D46EFF31187202383F31288BFF36F8FCA
:10521400204A0428966898BF1F4B127C94BF53F809
:1052240020301E4B0092452102461D4802F027FA09
:105234003DB1EB69C3F308031BB14521194802F0E2
:105244001EFA36B1304602F01AFE034608B102785F
:1052540002B9154B45211548324602F010FA294689
:105264002046FFF7BFFF4DB1EB69C3F308032BB131
:1052740087F31188BFF36F8F03B0F0BD012CF7D013
:1052840087F31188BFF36F8F304603B0BDE8F04059
:10529400FCF7CEBD68070020C08700006BAA0000A1
:1052A40081AA0000AEAA000079AA0000D4AA0000D6
:1052B40038B50A4B53F82040013053F82050A5422A
:1052C40000D838BD606830B1037EDB0701D4FFF736
:1052D40059FF0834F3E723689847FAE7D4870000B6
:1052E400012270B5364B86B003201A70FFF7E0FF39
:1052F400FDF73EF90420FFF7DBFF324C324DAC42A0
:10530400264628D931494523314A324802F043F927
:10531400314802F040F945212D4802F033F954F8A0
:105324000C3C059354F8103C049354F8143C039338
:1053340054F8183C029354F81C3C019354F8203C54
:10534400009354E90A2354E90C0100F057FA54F885
:10535400303C5E65D3E7AE4204F13004DFD301F0A4
:1053640017FA184CAC421FD918496923184A19482E
:1053740002F011F9184802F00EF96921CCE7D4E9DA
:105384000A23B3F1FF3F08BFB2F1FF3F05D052EA51
:105394000301206803D100F0B5FA3034E2E70F4985
:1053A400183001F0D1FBF8E7E9D301F05FFAFDF71B
:1053B40023FD0B4A938923F00103938106B070BD4A
:1053C400A907002044830000448300005CAB000074
:1053D4003BAB00006596000089AB0000216400002F
:1053E40040020020A02370B5144E86B003FB006673
:1053F400134B012205930F23CDE903320023CDE99A
:10540400013314234FF4A0720E4D0F4903FB0055D2
:10541400044602FB00110D4B3046009500F0EEF9F6
:10542400337C2C7423F004033374094B013403EBF1
:10543400C423EE606B6006B070BD00BFA001002005
:10544400A8AB000068070020B013002069550000D5
:10545400B00B00207FB50020FFF72AFF334B03F584
:10546400006282F3088883F30A88E023304C84F8CE
:1054740022300023E37723766376A37684F8203002
:10548400626A42F4E022626284F82330FCF7BCFBD7
:10549400FCF7B8FC4FF0FF33A362E362FCF7E0FED5
:1054A400FCF734FD234800F01FFA234B234A9342B0
:1054B4000ED92349CD23234A234802F06CF823480C
:1054C40002F069F8CD211F4802F05CF81C33EEE7C6
:1054D400FCD3FDF71DF80120FFF7EAFE02201C4C67
:1054E400FFF7E6FE01F04CF91A4B00255C611A4BFC
:1054F4004FF48062059301231849CDE903532046F4
:10550400174BCDE90155009500F078F90646237C48
:10551400204623F00403237400F070FD2846FFF7AF
:1055240061FF314620460E4AFCF74AFCB00B0020CE
:1055340000ED00E0E0020020AC8000001C810000CF
:10554400ADAB00003BAB00006596000089AB0000EA
:105554004002002068070020C5AB0000F0140020C2
:10556400E552000008B50D4B9B6893F90E30002BF3
:1055740009DB2024EFF3118384F31288BFF36F8FC8
:1055840002F0ACF8F6E7064906481C23064A02F086
:1055940002F81C21044801F0F5FF00BF6807002051
:1055A400EEAB000065960000CDAB000008B5836843
:1055B4004BB90B490B48E3230B4A01F0ECFFE32101
:1055C400094801F0DFFFD0E9003213605A6000237C
:1055D400027CC0E9003322F002020274836008BD39
:1055E40041AC00006596000016AC000070B504469E
:1055F400EFF31186202585F31288BFF36F8F3048AF
:1056040001F064FA60B984232E4A2F492F4801F02F
:10561400C2FF2B492E4801F0BEFF8421294818E01F
:10562400274801F077FAEFF3118385F31288BFF36B
:105634006F8F83F31188BFF36F8F63B92549FA2302
:10564400254A224801F0A7FF244801F0A4FFFA21CB
:10565400214801F097FF2568AC4213D095B1284644
:10566400FFF7A4FF05F1180001F04EFB00232846C4
:10567400C5F8983000F0C2FC3146BDE870401048CF
:1056840002F047BCD4E902329A4218BF01330C48F5
:10569400A36001F029FA68B94FF49973094A1049D3
:1056A4000A4801F078FF06490E4801F074FF4FF4F0
:1056B4009971B3E786F31188BFF36F8F70BD00BF94
:1056C4008807002081970000AE97000065960000CF
:1056D400C397000058AC000016AC000070AC00008A
:1056E400D9970000F0970000F7B5044616461D460A
:1056F400EFF305837BB152EA05030CD02D498823CF
:105704002D4A2E4801F047FF2D4801F044FF88211F
:10571400294801F037FFEFF31187202383F3128820
:10572400BFF36F8F274801F0D1F960B98423264A6B
:105734002649224801F02FFF2249254801F02BFF7A
:1057440084212148E5E71F4801F0E4F9A368D3B1B7
:10575400013B1C48A36001F0C7F968B94FF4997381
:10576400194A1C49154801F016FF16491A4801F058
:1057740012FF4FF49971E4E787F31188BFF36F8F39
:10578400002003B0F0BD56EA05030BD10D4801F02B
:10579400ABF90028E2D087F31188BFF36F8F6FF065
:1057A4000F00EEE722463946CDE90065054800F0D2
:1057B40085FEE6E793AC000073AC0000659600003C
:1057C40070AC00008807002081970000AE970000AD
:1057D400C3970000D9970000F097000010B5044665
:1057E40008B9054B9C681F2204F1600002F0C3FB5A
:1057F400002084F87F0010BD680700202DE9FF47D2
:105804000F9D04460F2D0F469946DDF8448045D17F
:105814002F4B994546D104F15803C4E91633109B24
:105824000026A38104230732A57322F0070507EBA2
:10583400050A514623742046C4E90666A660E67349
:10584400FBF770FF0E9B073020F00700C4F88800B8
:10585400C4E9207502930D9BAAEB000A01930C9BEB
:105864005246009339464B462046FCF78DFA66654E
:10587400B8F1000F29D01F22414604F1600002F064
:105884007AFB84F87F60134B9B680BB1D3F88C30A0
:105894005046C4F88C3004B0BDE8F08705F110031D
:1058A4001E2BB8D940F24E230B4A0C490C4801F088
:1058B40072FE29460B486FF00F030E2201F06BFEB7
:1058C40040F24E21044801F05DFE84F86080DAE77E
:1058D4006955000068070020E0AC000003AD00003B
:1058E4006596000083AD00000123037483810023C7
:1058F400C0E92033C0F88C30014B9860704700BF7A
:105904006807002038B50446EFF31185202383F39C
:105914001288BFF36F8F204801F0D8F868B9842348
:105924001E4A1F491F4801F036FE1B491E4801F05C
:1059340032FE8421194801F025FE174801F0EAF8E7
:10594400237C5B0710D504F1180001F0DDF9237CFA
:10595400204623F00403237402F0C1FA2946BDE86B
:1059640038400D4802F0D5BA0B4801F0BDF868B9CB
:105974004FF49973094A0D490A4801F00CFE06498F
:105984000B4801F008FE4FF49971D3E785F31188B1
:10599400BFF36F8F38BD00BF8C07002081970000D4
:1059A400AE97000065960000C3970000D9970000E9
:1059B400F0970000F0B587B00446DDE91276EFF306
:1059C400058575B1194940F21A33194A194801F08D
:1059D400E2FD194801F0DFFD40F21A31144801F0EC
:1059E400D1FD0595109D04950F9D03950E9D02957F
:1059F4000D9D01950C9D0095FFF700FFB6F1FF3F4B
:105A040008BFB7F1FF3F05D056EA070305D120468A
:105A1400FFF778FF204607B0F0BD3A46334604F15D
:105A24001800064901F090F8F4E700BFB4AD000097
:105A3400E0AC000065960000C6AD000021640000E3
:105A440070B504468689EFF31185202383F3128809
:105A5400BFF36F8F224801F039F868B98423214AD3
:105A64002149224801F097FD1D49214801F093FD89
:105A740084211C4801F086FD194801F04BF8237C71
:105A84001A0716D5164801F02FF868B94FF4997320
:105A9400144A1849154801F07EFD1149164801F0D1
:105AA4007AFD4FF49971E4E785F31188BFF36F8FA2
:105AB40070BD01222946204600F0E6FAF307F7D527
:105AC40040F2EB530D4A0E49084801F064FD2146AB
:105AD4000C4801F060FD40F2EB510848CAE700BFF2
